{
  "transactions": [
    {
      "hash": "0xb69091fa732f6031cb8919c21a4dd02ca1e94b3a74102747f6db7d35308789ce",
      "transactionType": "CREATE",
      "contractName": "PoolSwapTest",
      "contractAddress": "0x804037e84bb420e4efa8126f7c8f034e759104c1",
      "function": null,
      "arguments": [
        "0xE03A1074c86CFeDd5C142C4F04F1a1536e203543"
      ],
      "transaction": {
        "from": "0x37cff24eae0629fe7060eb7d260ab37492d22e1d",
        "gas": "0x1ac761",
        "value": "0x0",
        "input": "0x60a0604052348015600e575f80fd5b5060405161182a38038061182a833981016040819052602b91603b565b6001600160a01b03166080526066565b5f60208284031215604a575f80fd5b81516001600160a01b0381168114605f575f80fd5b9392505050565b60805161176f6100bb5f395f8181606e0152818160d7015281816101ee0152818161030001528181610888015281816108e10152818161095e015281816109b201528181610ad00152610b03015261176f5ff3fe608060405260043610610033575f3560e01c80632229d0b414610037578063481c6a751461005d57806391dd7346146100a8575b5f80fd5b61004a6100453660046112dc565b6100d4565b6040519081526020015b60405180910390f35b348015610068575f80fd5b506100907f000000000000000000000000000000000000000000000000000000000000000081565b6040516001600160a01b039091168152602001610054565b3480156100b3575f80fd5b506100c76100c236600461134d565b6101e1565b60405161005491906113e9565b5f7f00000000000000000000000000000000000000000000000000000000000000006001600160a01b03166348c894916040518060a00160405280336001600160a01b03168152602001868152602001888152602001878152602001858152506040516020016101449190611445565b6040516020818303038152906040526040518263ffffffff1660e01b815260040161016f91906113e9565b5f604051808303815f875af115801561018a573d5f803e3d5ffd5b505050506040513d5f823e601f3d908101601f191682016040526101b191908101906114d6565b8060200190518101906101c4919061154b565b90504780156101d8576101d85f3383610a04565b50949350505050565b6060336001600160a01b037f00000000000000000000000000000000000000000000000000000000000000001614610217575f80fd5b5f61022483850185611562565b90505f61023c82604001515f0151835f015130610aa9565b925050505f610257836040015160200151845f015130610aa9565b92505050815f146102af5760405162461bcd60e51b815260206004820152601e60248201527f64656c74614265666f726530206973206e6f7420657175616c20746f2030000060448201526064015b60405180910390fd5b80156102fd5760405162461bcd60e51b815260206004820152601e60248201527f64656c74614265666f726531206973206e6f7420657175616c20746f2030000060448201526064016102a6565b5f7f00000000000000000000000000000000000000000000000000000000000000006001600160a01b031663f3cd914c8560400151866060015187608001516040518463ffffffff1660e01b815260040161035a9392919061161a565b6020604051808303815f875af1158015610376573d5f803e3d5ffd5b505050506040513d601f19601f8201168201806040525081019061039a919061154b565b90505f6103b285604001515f0151865f015130610aa9565b925050505f6103cd866040015160200151875f015130610aa9565b9250505085606001515f01511561062f575f86606001516020015112156105125785606001516020015182121561047c5760405162461bcd60e51b815260206004820152604760248201527f64656c7461416674657230206973206e6f742067726561746572207468616e2060448201527f6f7220657175616c20746f20646174612e706172616d732e616d6f756e7453706064820152661958da599a595960ca1b608482015260a4016102a6565b816104878460801d90565b600f0b146104a75760405162461bcd60e51b81526004016102a690611662565b5f81121561050d5760405162461bcd60e51b815260206004820152602d60248201527f64656c7461416674657231206973206e6f742067726561746572207468616e2060448201526c06f7220657175616c20746f203609c1b60648201526084016102a6565b610878565b5f8213156105785760405162461bcd60e51b815260206004820152602d60248201527f64656c7461416674657230206973206e6f74206c657373207468616e206f722060448201526c657175616c20746f207a65726f60981b60648201526084016102a6565b8061058384600f0b90565b600f0b146105a35760405162461bcd60e51b81526004016102a6906116ad565b85606001516020015181131561050d5760405162461bcd60e51b8152602060048201526044602482018190527f64656c7461416674657231206973206e6f74206c657373207468616e206f7220908201527f657175616c20746f20646174612e706172616d732e616d6f756e745370656369606482015263199a595960e21b608482015260a4016102a6565b5f866060015160200151121561075e578560600151602001518112156106cd5760405162461bcd60e51b815260206004820152604760248201527f64656c7461416674657231206973206e6f742067726561746572207468616e2060448201527f6f7220657175616c20746f20646174612e706172616d732e616d6f756e7453706064820152661958da599a595960ca1b608482015260a4016102a6565b806106d884600f0b90565b600f0b146106f85760405162461bcd60e51b81526004016102a6906116ad565b5f82121561050d5760405162461bcd60e51b815260206004820152602d60248201527f64656c7461416674657230206973206e6f742067726561746572207468616e2060448201526c06f7220657175616c20746f203609c1b60648201526084016102a6565b5f8113156107c15760405162461bcd60e51b815260206004820152602a60248201527f64656c7461416674657231206973206e6f74206c657373207468616e206f72206044820152690657175616c20746f20360b41b60648201526084016102a6565b816107cc8460801d90565b600f0b146107ec5760405162461bcd60e51b81526004016102a690611662565b8560600151602001518213156108785760405162461bcd60e51b8152602060048201526044602482018190527f64656c7461416674657230206973206e6f74206c657373207468616e206f7220908201527f657175616c20746f20646174612e706172616d732e616d6f756e745370656369606482015263199a595960e21b608482015260a4016102a6565b5f8212156108d15785516108d1907f0000000000000000000000000000000000000000000000000000000000000000906108b1856116f8565b6020808b0151015160408b0151516001600160a01b031693929190610b35565b5f811215610936578551610936907f00000000000000000000000000000000000000000000000000000000000000009061090a846116f8565b8960200151602001518a60400151602001516001600160a01b0316610b3590949392919063ffffffff16565b5f821315610986578551602087015151604088015151610986926001600160a01b03909116917f000000000000000000000000000000000000000000000000000000000000000091908690610e01565b5f8113156109da578551602080880151516040890151909101516109da926001600160a01b03909116917f000000000000000000000000000000000000000000000000000000000000000091908590610e01565b60408051602081018590520160405160208183030381529060405296505050505050505b92915050565b5f6001600160a01b038416610a39575f805f8085875af1905080610a3457610a34835f633d2cec6f60e21b610ed3565b610aa3565b60405163a9059cbb60e01b81526001600160a01b038416600482015282602482015260205f6044835f895af13d15601f3d1160015f511416171691505f81525f60208201525f60408201525080610aa357610aa38463a9059cbb60e01b633c9fd93960e21b610ed3565b50505050565b5f8080610abf6001600160a01b03871686610f4b565b9250610af46001600160a01b0387167f0000000000000000000000000000000000000000000000000000000000000000610f4b565b9150610b2a6001600160a01b037f0000000000000000000000000000000000000000000000000000000000000000168588610fda565b905093509350939050565b8015610bca57836001600160a01b031663f5298aca84610b64886001600160a01b03166001600160a01b031690565b6040516001600160e01b031960e085901b1681526001600160a01b0390921660048301526024820152604481018590526064015b5f604051808303815f87803b158015610baf575f80fd5b505af1158015610bc1573d5f803e3d5ffd5b50505050610dfa565b6001600160a01b038516610c4157836001600160a01b03166311da60b4836040518263ffffffff1660e01b815260040160206040518083038185885af1158015610c16573d5f803e3d5ffd5b50505050506040513d601f19601f82011682018060405250810190610c3b919061154b565b50610dfa565b604051632961046560e21b81526001600160a01b03868116600483015285169063a5841194906024015f604051808303815f87803b158015610c81575f80fd5b505af1158015610c93573d5f803e3d5ffd5b505050506001600160a01b0383163014610d25576040516323b872dd60e01b81526001600160a01b0384811660048301528581166024830152604482018490528616906323b872dd906064016020604051808303815f875af1158015610cfb573d5f803e3d5ffd5b505050506040513d601f19601f82011682018060405250810190610d1f919061171e565b50610d97565b60405163a9059cbb60e01b81526001600160a01b0385811660048301526024820184905286169063a9059cbb906044016020604051808303815f875af1158015610d71573d5f803e3d5ffd5b505050506040513d601f19601f82011682018060405250810190610d95919061171e565b505b836001600160a01b03166311da60b46040518163ffffffff1660e01b81526004016020604051808303815f875af1158015610dd4573d5f803e3d5ffd5b505050506040513d601f19601f82011682018060405250810190610df8919061154b565b505b5050505050565b80610e4357604051630b0d9c0960e01b81526001600160a01b038681166004830152848116602483015260448201849052851690630b0d9c0990606401610b98565b836001600160a01b031663156e29f684610e6c886001600160a01b03166001600160a01b031690565b6040516001600160e01b031960e085901b1681526001600160a01b0390921660048301526024820152604481018590526064015f604051808303815f87803b158015610eb6575f80fd5b505af1158015610ec8573d5f803e3d5ffd5b505050505050505050565b6040516390bfb86560e01b8082526001600160a01b03851660048301526001600160e01b031984166024830152608060448301526020601f3d018190040260a0810160648401523d608484015290913d5f60a483013e60048260a4018201526001600160e01b031984168260c4018201528160e40181fd5b5f6001600160a01b038316610f6b57506001600160a01b038116316109fe565b6040516370a0823160e01b81526001600160a01b0383811660048301528416906370a0823190602401602060405180830381865afa158015610faf573d5f803e3d5ffd5b505050506040513d601f19601f82011682018060405250810190610fd3919061154b565b90506109fe565b5f806001600160a01b0384165f526001600160a01b03831660205260405f209050846001600160a01b031663f135baaa826040518263ffffffff1660e01b815260040161102991815260200190565b602060405180830381865afa158015611044573d5f803e3d5ffd5b505050506040513d601f19601f82011682018060405250810190611068919061154b565b95945050505050565b634e487b7160e01b5f52604160045260245ffd5b60405160a0810167ffffffffffffffff811182821017156110a8576110a8611071565b60405290565b604051601f8201601f1916810167ffffffffffffffff811182821017156110d7576110d7611071565b604052919050565b6001600160a01b03811681146110f3575f80fd5b50565b8035611101816110df565b919050565b5f60a08284031215611116575f80fd5b61111e611085565b9050813561112b816110df565b8152602082013561113b816110df565b6020820152604082013562ffffff81168114611155575f80fd5b60408201526060820135600281900b811461116e575f80fd5b606082015261117f608083016110f6565b608082015292915050565b80151581146110f3575f80fd5b5f606082840312156111a7575f80fd5b6040516060810167ffffffffffffffff811182821017156111ca576111ca611071565b60405290508082356111db8161118a565b81526020838101359082015260408301356111f5816110df565b6040919091015292915050565b5f60408284031215611212575f80fd5b6040805190810167ffffffffffffffff8111828210171561123557611235611071565b60405290508082356112468161118a565b815260208301356112568161118a565b6020919091015292915050565b5f67ffffffffffffffff82111561127c5761127c611071565b50601f01601f191660200190565b5f82601f830112611299575f80fd5b81356112ac6112a782611263565b6110ae565b8181528460208386010111156112c0575f80fd5b816020850160208301375f918101602001919091529392505050565b5f805f8061016085870312156112f0575f80fd5b6112fa8686611106565b93506113098660a08701611197565b9250611319866101008701611202565b915061014085013567ffffffffffffffff811115611335575f80fd5b6113418782880161128a565b91505092959194509250565b5f806020838503121561135e575f80fd5b823567ffffffffffffffff811115611374575f80fd5b8301601f81018513611384575f80fd5b803567ffffffffffffffff81111561139a575f80fd5b8560208284010111156113ab575f80fd5b6020919091019590945092505050565b5f81518084528060208401602086015e5f602082860101526020601f19601f83011685010191505092915050565b602081525f6113fb60208301846113bb565b9392505050565b80516001600160a01b03908116835260208083015182169084015260408083015162ffffff169084015260608083015160020b9084015260809182015116910152565b602080825282516001600160a01b0316828201528281015180511515604080850191909152910151151560608301528201515f906114866080840182611402565b506060830151805115156101208401526020810151610140840152604001516001600160a01b03166101608301526080830151610180808401526114ce6101a08401826113bb565b949350505050565b5f602082840312156114e6575f80fd5b815167ffffffffffffffff8111156114fc575f80fd5b8201601f8101841361150c575f80fd5b805161151a6112a782611263565b81815285602083850101111561152e575f80fd5b8160208401602083015e5f91810160200191909152949350505050565b5f6020828403121561155b575f80fd5b5051919050565b5f60208284031215611572575f80fd5b813567ffffffffffffffff811115611588575f80fd5b8201610180818503121561159a575f80fd5b6115a2611085565b81356115ad816110df565b81526115bc8560208401611202565b60208201526115ce8560608401611106565b60408201526115e1856101008401611197565b606082015261016082013567ffffffffffffffff811115611600575f80fd5b61160c8682850161128a565b608083015250949350505050565b6116248185611402565b8251151560a0820152602083015160c082015260408301516001600160a01b031660e08201526101206101008201525f6110686101208301846113bb565b6020808252602b908201527f64656c74612e616d6f756e74302829206973206e6f7420657175616c20746f2060408201526a064656c74614166746572360ac1b606082015260800190565b6020808252602b908201527f64656c74612e616d6f756e74312829206973206e6f7420657175616c20746f2060408201526a64656c746141667465723160a81b606082015260800190565b5f600160ff1b820161171857634e487b7160e01b5f52601160045260245ffd5b505f0390565b5f6020828403121561172e575f80fd5b81516113fb8161118a56fea2646970667358221220f527fc39e3147420488549696ddc43fccc635fc14d561ae2c4f1ca5bc19b71b964736f6c634300081a0033000000000000000000000000e03a1074c86cfedd5c142c4f04f1a1536e203543",
        "nonce": "0x1dc",
        "chainId": "0xaa36a7"
      },
      "additionalContracts": [],
      "isFixedGasLimit": false
    },
    {
      "hash": "0xae59a7ef62a9dc172ac8f2a8dc668f0a1f59956606d148fcb4b04332927ce076",
      "transactionType": "CREATE",
      "contractName": "PoolModifyLiquidityTest",
      "contractAddress": "0xc2826ed44bfe895211b2d72d86a8bb9337d9a954",
      "function": null,
      "arguments": [
        "0xE03A1074c86CFeDd5C142C4F04F1a1536e203543"
      ],
      "transaction": {
        "from": "0x37cff24eae0629fe7060eb7d260ab37492d22e1d",
        "gas": "0x1970f9",
        "value": "0x0",
        "input": "0x60a0604052348015600e575f80fd5b50604051611703380380611703833981016040819052602b91603b565b6001600160a01b03166080526066565b5f60208284031215604a575f80fd5b81516001600160a01b0381168114605f575f80fd5b9392505050565b60805161163a6100c95f395f818160790152818160f50152818161022d01528181610294015281816102c501528181610390015281816104fa01528181610550015281816105bf015281816106100152818161078501526107b8015261163a5ff3fe60806040526004361061003e575f3560e01c80630a5b11e414610042578063481c6a75146100685780635a6bcfda146100b357806391dd7346146100c6575b5f80fd5b61005561005036600461108b565b6100f2565b6040519081526020015b60405180910390f35b348015610073575f80fd5b5061009b7f000000000000000000000000000000000000000000000000000000000000000081565b6040516001600160a01b03909116815260200161005f565b6100556100c1366004611111565b61020a565b3480156100d1575f80fd5b506100e56100e036600461116e565b610220565b60405161005f9190611208565b5f7f00000000000000000000000000000000000000000000000000000000000000006001600160a01b03166348c894916040518060c00160405280336001600160a01b03168152602001898152602001888152602001878152602001861515815260200185151581525060405160200161016c9190611264565b6040516020818303038152906040526040518263ffffffff1660e01b81526004016101979190611208565b5f604051808303815f875af11580156101b2573d5f803e3d5ffd5b505050506040513d5f823e601f3d908101601f191682016040526101d99190810190611300565b8060200190518101906101ec9190611374565b9050478015610200576102005f3383610662565b5095945050505050565b5f6102188484845f806100f2565b949350505050565b6060336001600160a01b037f00000000000000000000000000000000000000000000000000000000000000001614610256575f80fd5b5f6102638385018561138b565b90505f6102be610278836020015160a0902090565b6040840151805160208201516060909201516001600160a01b037f0000000000000000000000000000000000000000000000000000000000000000169392309291610707565b505090505f7f00000000000000000000000000000000000000000000000000000000000000006001600160a01b0316635a6bcfda8460200151856040015186606001516040518463ffffffff1660e01b815260040161031f93929190611452565b60408051808303815f875af115801561033a573d5f803e3d5ffd5b505050506040513d601f19601f8201168201806040525081019061035e91906114a1565b5090505f6103ba610374856020015160a0902090565b6040860151805160208201516060909201516001600160a01b037f0000000000000000000000000000000000000000000000000000000000000000169392309291610707565b505090505f6103d485602001515f0151865f01513061075e565b925050505f6103ef866020015160200151875f01513061075e565b9250505082600f0b86604001516040015186600f0b61040e91906114d7565b1461045f5760405162461bcd60e51b815260206004820152601a60248201527f6c6971756964697479206368616e676520696e636f7272656374000000000000604482015260640160405180910390fd5b5f86604001516040015112156104a7575f82138061047c57505f81135b610488576104886114fe565b5f82128061049557505f81125b156104a2576104a26114fe565b6104ea565b5f86604001516040015113156104ea575f8212806104c457505f81125b6104d0576104d06114fe565b5f8213806104dd57505f81135b156104ea576104ea6114fe565b5f821215610540578551610540907f00000000000000000000000000000000000000000000000000000000000000009061052385611512565b60808a015160208b0151516001600160a01b0316939291906107ea565b5f811215610598578551610598907f00000000000000000000000000000000000000000000000000000000000000009061057984611512565b60808a01516020808c015101516001600160a01b0316939291906107ea565b5f8213156105e757855160a08701516020880151516105e7926001600160a01b03909116917f000000000000000000000000000000000000000000000000000000000000000091908690610ab6565b5f81131561063857855160a08701516020808901510151610638926001600160a01b03909116917f000000000000000000000000000000000000000000000000000000000000000091908590610ab6565b60408051602081018690520160405160208183030381529060405296505050505050505b92915050565b5f6001600160a01b038416610697575f805f8085875af190508061069257610692835f633d2cec6f60e21b610b88565b610701565b60405163a9059cbb60e01b81526001600160a01b038416600482015282602482015260205f6044835f895af13d15601f3d1160015f511416171691505f81525f60208201525f60408201525080610701576107018463a9059cbb60e01b633c9fd93960e21b610b88565b50505050565b60408051602681018390526006810184905260038101859052858152603a600c8201205f92820183905260208201839052908290528190819061074b8a8a83610c00565b919c909b50909950975050505050505050565b5f80806107746001600160a01b03871686610ca3565b92506107a96001600160a01b0387167f0000000000000000000000000000000000000000000000000000000000000000610ca3565b91506107df6001600160a01b037f0000000000000000000000000000000000000000000000000000000000000000168588610d32565b905093509350939050565b801561087f57836001600160a01b031663f5298aca84610819886001600160a01b03166001600160a01b031690565b6040516001600160e01b031960e085901b1681526001600160a01b0390921660048301526024820152604481018590526064015b5f604051808303815f87803b158015610864575f80fd5b505af1158015610876573d5f803e3d5ffd5b50505050610aaf565b6001600160a01b0385166108f657836001600160a01b03166311da60b4836040518263ffffffff1660e01b815260040160206040518083038185885af11580156108cb573d5f803e3d5ffd5b50505050506040513d601f19601f820116820180604052508101906108f09190611374565b50610aaf565b604051632961046560e21b81526001600160a01b03868116600483015285169063a5841194906024015f604051808303815f87803b158015610936575f80fd5b505af1158015610948573d5f803e3d5ffd5b505050506001600160a01b03831630146109da576040516323b872dd60e01b81526001600160a01b0384811660048301528581166024830152604482018490528616906323b872dd906064016020604051808303815f875af11580156109b0573d5f803e3d5ffd5b505050506040513d601f19601f820116820180604052508101906109d4919061152c565b50610a4c565b60405163a9059cbb60e01b81526001600160a01b0385811660048301526024820184905286169063a9059cbb906044016020604051808303815f875af1158015610a26573d5f803e3d5ffd5b505050506040513d601f19601f82011682018060405250810190610a4a919061152c565b505b836001600160a01b03166311da60b46040518163ffffffff1660e01b81526004016020604051808303815f875af1158015610a89573d5f803e3d5ffd5b505050506040513d601f19601f82011682018060405250810190610aad9190611374565b505b5050505050565b80610af857604051630b0d9c0960e01b81526001600160a01b038681166004830152848116602483015260448201849052851690630b0d9c099060640161084d565b836001600160a01b031663156e29f684610b21886001600160a01b03166001600160a01b031690565b6040516001600160e01b031960e085901b1681526001600160a01b0390921660048301526024820152604481018590526064015f604051808303815f87803b158015610b6b575f80fd5b505af1158015610b7d573d5f803e3d5ffd5b505050505050505050565b6040516390bfb86560e01b8082526001600160a01b03851660048301526001600160e01b031984166024830152608060448301526020601f3d018190040260a0810160648401523d608484015290913d5f60a483013e60048260a4018201526001600160e01b031984168260c4018201528160e40181fd5b5f805f80610c0e8686610dc9565b604051631afeb18d60e11b815260048101829052600360248201529091505f906001600160a01b038916906335fd631a906044015f60405180830381865afa158015610c5c573d5f803e3d5ffd5b505050506040513d5f823e601f3d908101601f19168201604052610c839190810190611547565b60208101516040820151606090920151909a919950975095505050505050565b5f6001600160a01b038316610cc357506001600160a01b0381163161065c565b6040516370a0823160e01b81526001600160a01b0383811660048301528416906370a0823190602401602060405180830381865afa158015610d07573d5f803e3d5ffd5b505050506040513d601f19601f82011682018060405250810190610d2b9190611374565b905061065c565b5f806001600160a01b0384165f526001600160a01b03831660205260405f209050846001600160a01b031663f135baaa826040518263ffffffff1660e01b8152600401610d8191815260200190565b602060405180830381865afa158015610d9c573d5f803e3d5ffd5b505050506040513d601f19601f82011682018060405250810190610dc09190611374565b95945050505050565b5f80610dd484610e19565b90505f610de26006836115f1565b6040805160208101879052908101829052909150606001604051602081830303815290604052805190602001209250505092915050565b6040515f90610e38908390600690602001918252602082015260400190565b604051602081830303815290604052805190602001209050919050565b634e487b7160e01b5f52604160045260245ffd5b60405160c081016001600160401b0381118282101715610e8b57610e8b610e55565b60405290565b604051601f8201601f191681016001600160401b0381118282101715610eb957610eb9610e55565b604052919050565b6001600160a01b0381168114610ed5575f80fd5b50565b8035600281900b8114610ee9575f80fd5b919050565b5f60a08284031215610efe575f80fd5b60405160a081016001600160401b0381118282101715610f2057610f20610e55565b6040529050808235610f3181610ec1565b81526020830135610f4181610ec1565b6020820152604083013562ffffff81168114610f5b575f80fd5b6040820152610f6c60608401610ed8565b60608201526080830135610f7f81610ec1565b6080919091015292915050565b5f60808284031215610f9c575f80fd5b604051608081016001600160401b0381118282101715610fbe57610fbe610e55565b604052905080610fcd83610ed8565b8152610fdb60208401610ed8565b602082015260408301356040820152606083013560608201525092915050565b5f6001600160401b0382111561101357611013610e55565b50601f01601f191660200190565b5f82601f830112611030575f80fd5b813561104361103e82610ffb565b610e91565b818152846020838601011115611057575f80fd5b816020850160208301375f918101602001919091529392505050565b8015158114610ed5575f80fd5b8035610ee981611073565b5f805f805f61018086880312156110a0575f80fd5b6110aa8787610eee565b94506110b98760a08801610f8c565b93506101208601356001600160401b038111156110d4575f80fd5b6110e088828901611021565b9350506101408601356110f281611073565b915061016086013561110381611073565b809150509295509295909350565b5f805f6101408486031215611124575f80fd5b61112e8585610eee565b925061113d8560a08601610f8c565b91506101208401356001600160401b03811115611158575f80fd5b61116486828701611021565b9150509250925092565b5f806020838503121561117f575f80fd5b82356001600160401b03811115611194575f80fd5b8301601f810185136111a4575f80fd5b80356001600160401b038111156111b9575f80fd5b8560208284010111156111ca575f80fd5b6020919091019590945092505050565b5f81518084528060208401602086015e5f602082860101526020601f19601f83011685010191505092915050565b602081525f61121a60208301846111da565b9392505050565b80516001600160a01b03908116835260208083015182169084015260408083015162ffffff169084015260608083015160020b9084015260809182015116910152565b602080825282516001600160a01b0316828201528201515f9061128a6040840182611221565b506040838101518051600290810b60e08601526020820151900b610100850152908101516101208401526060908101516101408401528301516101a06101608401526112da6101c08401826111da565b90506080840151151561018084015260a084015115156101a08401528091505092915050565b5f60208284031215611310575f80fd5b81516001600160401b03811115611325575f80fd5b8201601f81018413611335575f80fd5b805161134361103e82610ffb565b818152856020838501011115611357575f80fd5b8160208401602083015e5f91810160200191909152949350505050565b5f60208284031215611384575f80fd5b5051919050565b5f6020828403121561139b575f80fd5b81356001600160401b038111156113b0575f80fd5b82016101a081850312156113c2575f80fd5b6113ca610e69565b81356113d581610ec1565b81526113e48560208401610eee565b60208201526113f68560c08401610f8c565b60408201526101408201356001600160401b03811115611414575f80fd5b61142086828501611021565b6060830152506114336101608301611080565b60808201526114456101808301611080565b60a0820152949350505050565b61145c8185611221565b8251600290810b60a08301526020840151900b60c0820152604083015160e082015260608301516101008201526101406101208201525f610dc06101408301846111da565b5f80604083850312156114b2575f80fd5b505080516020909101519092909150565b634e487b7160e01b5f52601160045260245ffd5b8082018281125f8312801582168215821617156114f6576114f66114c3565b505092915050565b634e487b7160e01b5f52600160045260245ffd5b5f600160ff1b8201611526576115266114c3565b505f0390565b5f6020828403121561153c575f80fd5b815161121a81611073565b5f60208284031215611557575f80fd5b81516001600160401b0381111561156c575f80fd5b8201601f8101841361157c575f80fd5b80516001600160401b0381111561159557611595610e55565b8060051b6115a560208201610e91565b918252602081840181019290810190878411156115c0575f80fd5b6020850194505b838510156115e6578451808352602095860195909350909101906115c7565b979650505050505050565b8082018082111561065c5761065c6114c356fea2646970667358221220d90caeda764fef75ce16146a6f4eda93c180f351e16bbd2864d9c00d8d68f77564736f6c634300081a0033000000000000000000000000e03a1074c86cfedd5c142c4f04f1a1536e203543",
        "nonce": "0x1dd",
        "chainId": "0xaa36a7"
      },
      "additionalContracts": [],
      "isFixedGasLimit": false
    },
    {
      "hash": "0x242332b5fc24baa900257e5b9cac920e692cde552752a3fd802cc99ee27db377",
      "transactionType": "CALL",
      "contractName": null,
      "contractAddress": "0x43a77da8ed6c900e97e7a3c2dd874ffea9ba97ca",
      "function": "approve(address,uint256)",
      "arguments": [
        "0xc2826ed44BFE895211b2D72d86a8Bb9337D9A954",
        "115792089237316195423570985008687907853269984665640564039457584007913129639935"
      ],
      "transaction": {
        "from": "0x37cff24eae0629fe7060eb7d260ab37492d22e1d",
        "to": "0x43a77da8ed6c900e97e7a3c2dd874ffea9ba97ca",
        "gas": "0xfab2",
        "value": "0x0",
        "input": "0x095ea7b3000000000000000000000000c2826ed44bfe895211b2d72d86a8bb9337d9a954ffffffffffffffffffffffffffffffffffffffffffffffffffffffffffffffff",
        "nonce": "0x1de",
        "chainId": "0xaa36a7"
      },
      "additionalContracts": [],
      "isFixedGasLimit": false
    },
    {
      "hash": "0x862e77abfdae07b5bfca5785f76efe2198093975ca52452ec9bb93953236bea2",
      "transactionType": "CALL",
      "contractName": null,
      "contractAddress": "0x90429c2910b99fee9aa4b20ac4060259cbad0f46",
      "function": "approve(address,uint256)",
      "arguments": [
        "0xc2826ed44BFE895211b2D72d86a8Bb9337D9A954",
        "115792089237316195423570985008687907853269984665640564039457584007913129639935"
      ],
      "transaction": {
        "from": "0x37cff24eae0629fe7060eb7d260ab37492d22e1d",
        "to": "0x90429c2910b99fee9aa4b20ac4060259cbad0f46",
        "gas": "0xfab2",
        "value": "0x0",
        "input": "0x095ea7b3000000000000000000000000c2826ed44bfe895211b2d72d86a8bb9337d9a954ffffffffffffffffffffffffffffffffffffffffffffffffffffffffffffffff",
        "nonce": "0x1df",
        "chainId": "0xaa36a7"
      },
      "additionalContracts": [],
      "isFixedGasLimit": false
    },
    {
      "hash": "0xc80f7e0d1c28b58908366e504772dabb17aae302491ec6933ae887488cb22c43",
      "transactionType": "CALL",
      "contractName": null,
      "contractAddress": "0x43a77da8ed6c900e97e7a3c2dd874ffea9ba97ca",
      "function": "approve(address,uint256)",
      "arguments": [
        "0x804037E84bb420E4eFa8126F7c8f034e759104C1",
        "115792089237316195423570985008687907853269984665640564039457584007913129639935"
      ],
      "transaction": {
        "from": "0x37cff24eae0629fe7060eb7d260ab37492d22e1d",
        "to": "0x43a77da8ed6c900e97e7a3c2dd874ffea9ba97ca",
        "gas": "0xfab2",
        "value": "0x0",
        "input": "0x095ea7b3000000000000000000000000804037e84bb420e4efa8126f7c8f034e759104c1ffffffffffffffffffffffffffffffffffffffffffffffffffffffffffffffff",
        "nonce": "0x1e0",
        "chainId": "0xaa36a7"
      },
      "additionalContracts": [],
      "isFixedGasLimit": false
    },
    {
      "hash": "0x44e8b485633838c9a6ca0c2d0e65e27bd11e72ce5bbd122a2238c3f9641d5a99",
      "transactionType": "CALL",
      "contractName": null,
      "contractAddress": "0x90429c2910b99fee9aa4b20ac4060259cbad0f46",
      "function": "approve(address,uint256)",
      "arguments": [
        "0x804037E84bb420E4eFa8126F7c8f034e759104C1",
        "115792089237316195423570985008687907853269984665640564039457584007913129639935"
      ],
      "transaction": {
        "from": "0x37cff24eae0629fe7060eb7d260ab37492d22e1d",
        "to": "0x90429c2910b99fee9aa4b20ac4060259cbad0f46",
        "gas": "0xfab2",
        "value": "0x0",
        "input": "0x095ea7b3000000000000000000000000804037e84bb420e4efa8126f7c8f034e759104c1ffffffffffffffffffffffffffffffffffffffffffffffffffffffffffffffff",
        "nonce": "0x1e1",
        "chainId": "0xaa36a7"
      },
      "additionalContracts": [],
      "isFixedGasLimit": false
    },
    {
      "hash": "0x6d36b7001f1d99257c1e80e49ff2e67cb9bb92d404268e4c3ddcf098b709e5d6",
      "transactionType": "CALL",
      "contractName": "PoolModifyLiquidityTest",
      "contractAddress": "0xc2826ed44bfe895211b2d72d86a8bb9337d9a954",
      "function": "modifyLiquidity((address,address,uint24,int24,address),(int24,int24,int256,bytes32),bytes)",
      "arguments": [
        "(0x43a77DA8ed6c900e97e7A3C2dd874ffea9Ba97ca, 0x90429C2910B99FeE9AA4b20AC4060259CBad0f46, 8388608, 60, 0x8F609e1427A9601224A41DC819E527fdc59c48C0)",
        "(-600, 600, 100000000000, 0x0000000000000000000000000000000000000000000000000000000000000000)",
        "0x"
      ],
      "transaction": {
        "from": "0x37cff24eae0629fe7060eb7d260ab37492d22e1d",
        "to": "0xc2826ed44bfe895211b2d72d86a8bb9337d9a954",
        "gas": "0x4a9bc",
        "value": "0x0",
        "input": "0x5a6bcfda00000000000000000000000043a77da8ed6c900e97e7a3c2dd874ffea9ba97ca00000000000000000000000090429c2910b99fee9aa4b20ac4060259cbad0f460000000000000000000000000000000000000000000000000000000000800000000000000000000000000000000000000000000000000000000000000000003c0000000000000000000000008f609e1427a9601224a41dc819e527fdc59c48c0fffffffffffffffffffffffffffffffffffffffffffffffffffffffffffffda80000000000000000000000000000000000000000000000000000000000000258000000000000000000000000000000000000000000000000000000174876e800000000000000000000000000000000000000000000000000000000000000000000000000000000000000000000000000000000000000000000000000000001400000000000000000000000000000000000000000000000000000000000000000",
        "nonce": "0x1e2",
        "chainId": "0xaa36a7"
      },
      "additionalContracts": [],
      "isFixedGasLimit": false
    },
    {
      "hash": "0xbedd684038281bafeede12015ae6d1fe2d6948bddfbaf0736064b4330d958427",
      "transactionType": "CALL",
      "contractName": "PoolSwapTest",
      "contractAddress": "0x804037e84bb420e4efa8126f7c8f034e759104c1",
      "function": "swap((address,address,uint24,int24,address),(bool,int256,uint160),(bool,bool),bytes)",
      "arguments": [
        "(0x43a77DA8ed6c900e97e7A3C2dd874ffea9Ba97ca, 0x90429C2910B99FeE9AA4b20AC4060259CBad0f46, 8388608, 60, 0x8F609e1427A9601224A41DC819E527fdc59c48C0)",
        "(false, -100, 1461446703485210103287273052203988822378723970341)",
        "(false, false)",
        "0x"
      ],
      "transaction": {
        "from": "0x37cff24eae0629fe7060eb7d260ab37492d22e1d",
        "to": "0x804037e84bb420e4efa8126f7c8f034e759104c1",
        "gas": "0x388c7",
        "value": "0x0",
        "input": "0x2229d0b400000000000000000000000043a77da8ed6c900e97e7a3c2dd874ffea9ba97ca00000000000000000000000090429c2910b99fee9aa4b20ac4060259cbad0f460000000000000000000000000000000000000000000000000000000000800000000000000000000000000000000000000000000000000000000000000000003c0000000000000000000000008f609e1427a9601224a41dc819e527fdc59c48c00000000000000000000000000000000000000000000000000000000000000000ffffffffffffffffffffffffffffffffffffffffffffffffffffffffffffff9c000000000000000000000000fffd8963efd1fc6a506488495d951d5263988d250000000000000000000000000000000000000000000000000000000000000000000000000000000000000000000000000000000000000000000000000000000000000000000000000000000000000000000000000000000000000000000001600000000000000000000000000000000000000000000000000000000000000000",
        "nonce": "0x1e3",
        "chainId": "0xaa36a7"
      },
      "additionalContracts": [],
      "isFixedGasLimit": false
    },
    {
      "hash": "0x8b6a3f1848d11abb3b1b0b27c19c8d288d6ce05066c034c129aab1adfbf3cad3",
      "transactionType": "CALL",
      "contractName": "PoolSwapTest",
      "contractAddress": "0x804037e84bb420e4efa8126f7c8f034e759104c1",
      "function": "swap((address,address,uint24,int24,address),(bool,int256,uint160),(bool,bool),bytes)",
      "arguments": [
        "(0x43a77DA8ed6c900e97e7A3C2dd874ffea9Ba97ca, 0x90429C2910B99FeE9AA4b20AC4060259CBad0f46, 8388608, 60, 0x8F609e1427A9601224A41DC819E527fdc59c48C0)",
        "(true, -50, 4295128740)",
        "(false, false)",
        "0x"
      ],
      "transaction": {
        "from": "0x37cff24eae0629fe7060eb7d260ab37492d22e1d",
        "to": "0x804037e84bb420e4efa8126f7c8f034e759104c1",
        "gas": "0x384a4",
        "value": "0x0",
        "input": "0x2229d0b400000000000000000000000043a77da8ed6c900e97e7a3c2dd874ffea9ba97ca00000000000000000000000090429c2910b99fee9aa4b20ac4060259cbad0f460000000000000000000000000000000000000000000000000000000000800000000000000000000000000000000000000000000000000000000000000000003c0000000000000000000000008f609e1427a9601224a41dc819e527fdc59c48c00000000000000000000000000000000000000000000000000000000000000001ffffffffffffffffffffffffffffffffffffffffffffffffffffffffffffffce00000000000000000000000000000000000000000000000000000001000276a40000000000000000000000000000000000000000000000000000000000000000000000000000000000000000000000000000000000000000000000000000000000000000000000000000000000000000000000000000000000000000000001600000000000000000000000000000000000000000000000000000000000000000",
        "nonce": "0x1e4",
        "chainId": "0xaa36a7"
      },
      "additionalContracts": [],
      "isFixedGasLimit": false
    },
    {
      "hash": "0x648c64986fbbc21dd8681a903f456d5cac04cd59d8bcdd961522c4e6d04d26f0",
      "transactionType": "CALL",
      "contractName": null,
      "contractAddress": "0x8f609e1427a9601224a41dc819e527fdc59c48c0",
      "function": "updatePrice(uint256)",
      "arguments": [
        "980000000000000000"
      ],
      "transaction": {
        "from": "0x37cff24eae0629fe7060eb7d260ab37492d22e1d",
        "to": "0x8f609e1427a9601224a41dc819e527fdc59c48c0",
        "gas": "0xa2a4",
        "value": "0x0",
        "input": "0x8d6cc56d0000000000000000000000000000000000000000000000000d99a8cec7e20000",
        "nonce": "0x1e5",
        "chainId": "0xaa36a7"
      },
      "additionalContracts": [],
      "isFixedGasLimit": false
    },
    {
      "hash": "0xf10d6658cd376e805b105722d775c2ca22e342c7640e768f4f9ba97c548f4cb9",
      "transactionType": "CALL",
      "contractName": "PoolSwapTest",
      "contractAddress": "0x804037e84bb420e4efa8126f7c8f034e759104c1",
      "function": "swap((address,address,uint24,int24,address),(bool,int256,uint160),(bool,bool),bytes)",
      "arguments": [
        "(0x43a77DA8ed6c900e97e7A3C2dd874ffea9Ba97ca, 0x90429C2910B99FeE9AA4b20AC4060259CBad0f46, 8388608, 60, 0x8F609e1427A9601224A41DC819E527fdc59c48C0)",
        "(false, -100, 1461446703485210103287273052203988822378723970341)",
        "(false, false)",
        "0x"
      ],
      "transaction": {
        "from": "0x37cff24eae0629fe7060eb7d260ab37492d22e1d",
        "to": "0x804037e84bb420e4efa8126f7c8f034e759104c1",
        "gas": "0x3c0a8",
        "value": "0x0",
        "input": "0x2229d0b400000000000000000000000043a77da8ed6c900e97e7a3c2dd874ffea9ba97ca00000000000000000000000090429c2910b99fee9aa4b20ac4060259cbad0f460000000000000000000000000000000000000000000000000000000000800000000000000000000000000000000000000000000000000000000000000000003c0000000000000000000000008f609e1427a9601224a41dc819e527fdc59c48c00000000000000000000000000000000000000000000000000000000000000000ffffffffffffffffffffffffffffffffffffffffffffffffffffffffffffff9c000000000000000000000000fffd8963efd1fc6a506488495d951d5263988d250000000000000000000000000000000000000000000000000000000000000000000000000000000000000000000000000000000000000000000000000000000000000000000000000000000000000000000000000000000000000000000001600000000000000000000000000000000000000000000000000000000000000000",
        "nonce": "0x1e6",
        "chainId": "0xaa36a7"
      },
      "additionalContracts": [],
      "isFixedGasLimit": false
    },
    {
      "hash": "0x6f612744f144df76d2e35c894f0856ed3b97af8a7b967b8403bc37c7784e7d71",
      "transactionType": "CALL",
      "contractName": null,
      "contractAddress": "0x8f609e1427a9601224a41dc819e527fdc59c48c0",
      "function": "updatePrice(uint256)",
      "arguments": [
        "990000000000000000"
      ],
      "transaction": {
        "from": "0x37cff24eae0629fe7060eb7d260ab37492d22e1d",
        "to": "0x8f609e1427a9601224a41dc819e527fdc59c48c0",
        "gas": "0xa2a4",
        "value": "0x0",
        "input": "0x8d6cc56d0000000000000000000000000000000000000000000000000dbd2fc137a30000",
        "nonce": "0x1e7",
        "chainId": "0xaa36a7"
      },
      "additionalContracts": [],
      "isFixedGasLimit": false
    },
    {
      "hash": "0x633f1f59f4856b328191545b778fee3235258c4920b39bdd312b3fb8858444d0",
      "transactionType": "CALL",
      "contractName": "PoolSwapTest",
      "contractAddress": "0x804037e84bb420e4efa8126f7c8f034e759104c1",
      "function": "swap((address,address,uint24,int24,address),(bool,int256,uint160),(bool,bool),bytes)",
      "arguments": [
        "(0x43a77DA8ed6c900e97e7A3C2dd874ffea9Ba97ca, 0x90429C2910B99FeE9AA4b20AC4060259CBad0f46, 8388608, 60, 0x8F609e1427A9601224A41DC819E527fdc59c48C0)",
        "(true, -200, 4295128740)",
        "(false, false)",
        "0x"
      ],
      "transaction": {
        "from": "0x37cff24eae0629fe7060eb7d260ab37492d22e1d",
        "to": "0x804037e84bb420e4efa8126f7c8f034e759104c1",
        "gas": "0x3f4c9",
        "value": "0x0",
        "input": "0x2229d0b400000000000000000000000043a77da8ed6c900e97e7a3c2dd874ffea9ba97ca00000000000000000000000090429c2910b99fee9aa4b20ac4060259cbad0f460000000000000000000000000000000000000000000000000000000000800000000000000000000000000000000000000000000000000000000000000000003c0000000000000000000000008f609e1427a9601224a41dc819e527fdc59c48c00000000000000000000000000000000000000000000000000000000000000001ffffffffffffffffffffffffffffffffffffffffffffffffffffffffffffff3800000000000000000000000000000000000000000000000000000001000276a40000000000000000000000000000000000000000000000000000000000000000000000000000000000000000000000000000000000000000000000000000000000000000000000000000000000000000000000000000000000000000000001600000000000000000000000000000000000000000000000000000000000000000",
        "nonce": "0x1e8",
        "chainId": "0xaa36a7"
      },
      "additionalContracts": [],
      "isFixedGasLimit": false
    },
    {
      "hash": "0xd52fb2079ce16366221eebb30474e21072eb1f08e34ddc7430419a4f440cc470",
      "transactionType": "CALL",
      "contractName": null,
      "contractAddress": "0x8f609e1427a9601224a41dc819e527fdc59c48c0",
      "function": "updatePrice(uint256)",
      "arguments": [
        "1000000000000000000"
      ],
      "transaction": {
        "from": "0x37cff24eae0629fe7060eb7d260ab37492d22e1d",
        "to": "0x8f609e1427a9601224a41dc819e527fdc59c48c0",
        "gas": "0xa2a4",
        "value": "0x0",
        "input": "0x8d6cc56d0000000000000000000000000000000000000000000000000de0b6b3a7640000",
        "nonce": "0x1e9",
        "chainId": "0xaa36a7"
      },
      "additionalContracts": [],
      "isFixedGasLimit": false
    },
    {
      "hash": "0xadab67e91b00025026144f0c735eab00f437664b1800d0f33991ea3a11e154bb",
      "transactionType": "CALL",
      "contractName": "PoolSwapTest",
      "contractAddress": "0x804037e84bb420e4efa8126f7c8f034e759104c1",
      "function": "swap((address,address,uint24,int24,address),(bool,int256,uint160),(bool,bool),bytes)",
      "arguments": [
        "(0x43a77DA8ed6c900e97e7A3C2dd874ffea9Ba97ca, 0x90429C2910B99FeE9AA4b20AC4060259CBad0f46, 8388608, 60, 0x8F609e1427A9601224A41DC819E527fdc59c48C0)",
        "(false, -100, 1461446703485210103287273052203988822378723970341)",
        "(false, false)",
        "0x"
      ],
      "transaction": {
        "from": "0x37cff24eae0629fe7060eb7d260ab37492d22e1d",
        "to": "0x804037e84bb420e4efa8126f7c8f034e759104c1",
        "gas": "0x388e4",
        "value": "0x0",
        "input": "0x2229d0b400000000000000000000000043a77da8ed6c900e97e7a3c2dd874ffea9ba97ca00000000000000000000000090429c2910b99fee9aa4b20ac4060259cbad0f460000000000000000000000000000000000000000000000000000000000800000000000000000000000000000000000000000000000000000000000000000003c0000000000000000000000008f609e1427a9601224a41dc819e527fdc59c48c00000000000000000000000000000000000000000000000000000000000000000ffffffffffffffffffffffffffffffffffffffffffffffffffffffffffffff9c000000000000000000000000fffd8963efd1fc6a506488495d951d5263988d250000000000000000000000000000000000000000000000000000000000000000000000000000000000000000000000000000000000000000000000000000000000000000000000000000000000000000000000000000000000000000000001600000000000000000000000000000000000000000000000000000000000000000",
        "nonce": "0x1ea",
        "chainId": "0xaa36a7"
      },
      "additionalContracts": [],
      "isFixedGasLimit": false
    }
  ],
  "receipts": [
    {
      "status": "0x1",
      "cumulativeGasUsed": "0x9688e9",
      "logs": [],
      "logsBloom": "0x00000000000000000000000000000000000000000000000000000000000000000000000000000000000000000000000000000000000000000000000000000000000000000000000000000000000000000000000000000000000000000000000000000000000000000000000000000000000000000000000000000000000000000000000000000000000000000000000000000000000000000000000000000000000000000000000000000000000000000000000000000000000000000000000000000000000000000000000000000000000000000000000000000000000000000000000000000000000000000000000000000000000000000000000000000000",
      "type": "0x2",
      "transactionHash": "0xb69091fa732f6031cb8919c21a4dd02ca1e94b3a74102747f6db7d35308789ce",
      "transactionIndex": "0x42",
      "blockHash": "0x53822c3bd80ddd1c30c7d5dd42693d7e978c8391be67b8687ef772f9efd8b14e",
      "blockNumber": "0x9fe6c9",
      "gasUsed": "0x14995f",
      "effectiveGasPrice": "0xf424a",
      "from": "0x37cff24eae0629fe7060eb7d260ab37492d22e1d",
      "to": null,
      "contractAddress": "0x804037e84bb420e4efa8126f7c8f034e759104c1"
    },
    {
      "status": "0x1",
      "cumulativeGasUsed": "0xaa1ae4",
      "logs": [],
      "logsBloom": "0x00000000000000000000000000000000000000000000000000000000000000000000000000000000000000000000000000000000000000000000000000000000000000000000000000000000000000000000000000000000000000000000000000000000000000000000000000000000000000000000000000000000000000000000000000000000000000000000000000000000000000000000000000000000000000000000000000000000000000000000000000000000000000000000000000000000000000000000000000000000000000000000000000000000000000000000000000000000000000000000000000000000000000000000000000000000",
      "type": "0x2",
      "transactionHash": "0xae59a7ef62a9dc172ac8f2a8dc668f0a1f59956606d148fcb4b04332927ce076",
      "transactionIndex": "0x43",
      "blockHash": "0x53822c3bd80ddd1c30c7d5dd42693d7e978c8391be67b8687ef772f9efd8b14e",
      "blockNumber": "0x9fe6c9",
      "gasUsed": "0x1391fb",
      "effectiveGasPrice": "0xf424a",
      "from": "0x37cff24eae0629fe7060eb7d260ab37492d22e1d",
      "to": null,
      "contractAddress": "0xc2826ed44bfe895211b2d72d86a8bb9337d9a954"
    },
    {
      "status": "0x1",
      "cumulativeGasUsed": "0xc00378",
      "logs": [
        {
          "address": "0x43a77da8ed6c900e97e7a3c2dd874ffea9ba97ca",
          "topics": [
            "0x8c5be1e5ebec7d5bd14f71427d1e84f3dd0314c0f7b2291e5b200ac8c7c3b925",
            "0x00000000000000000000000037cff24eae0629fe7060eb7d260ab37492d22e1d",
            "0x000000000000000000000000c2826ed44bfe895211b2d72d86a8bb9337d9a954"
          ],
          "data": "0xffffffffffffffffffffffffffffffffffffffffffffffffffffffffffffffff",
          "blockHash": "0x53822c3bd80ddd1c30c7d5dd42693d7e978c8391be67b8687ef772f9efd8b14e",
          "blockNumber": "0x9fe6c9",
          "blockTimestamp": "0x69bc6568",
          "transactionHash": "0x242332b5fc24baa900257e5b9cac920e692cde552752a3fd802cc99ee27db377",
          "transactionIndex": "0x50",
          "logIndex": "0xb2",
          "removed": false
        }
      ],
      "logsBloom": "0x00000000000000000000000000008000000000000000000000000000000000000000000000400000000000000000000000000000000000000080000000200000000000000000000000000000000000000000080000000000002000000000000000000000000000000000000000000000000000000000000000000000000000000800000000000020040000000000000000000000000000000000000000000000020000000000000000000000000000000000000000000000000000000000000000000000000000000000000000000000000000000000000000000000000000000010000000000000001000000000000000000000000000000000000000000000",
      "type": "0x2",
      "transactionHash": "0x242332b5fc24baa900257e5b9cac920e692cde552752a3fd802cc99ee27db377",
      "transactionIndex": "0x50",
      "blockHash": "0x53822c3bd80ddd1c30c7d5dd42693d7e978c8391be67b8687ef772f9efd8b14e",
      "blockNumber": "0x9fe6c9",
      "gasUsed": "0xb580",
      "effectiveGasPrice": "0xf424a",
      "from": "0x37cff24eae0629fe7060eb7d260ab37492d22e1d",
      "to": "0x43a77da8ed6c900e97e7a3c2dd874ffea9ba97ca",
      "contractAddress": null
    },
    {
      "status": "0x1",
      "cumulativeGasUsed": "0xc0b8f8",
      "logs": [
        {
          "address": "0x90429c2910b99fee9aa4b20ac4060259cbad0f46",
          "topics": [
            "0x8c5be1e5ebec7d5bd14f71427d1e84f3dd0314c0f7b2291e5b200ac8c7c3b925",
            "0x00000000000000000000000037cff24eae0629fe7060eb7d260ab37492d22e1d",
            "0x000000000000000000000000c2826ed44bfe895211b2d72d86a8bb9337d9a954"
          ],
          "data": "0xffffffffffffffffffffffffffffffffffffffffffffffffffffffffffffffff",
          "blockHash": "0x53822c3bd80ddd1c30c7d5dd42693d7e978c8391be67b8687ef772f9efd8b14e",
          "blockNumber": "0x9fe6c9",
          "blockTimestamp": "0x69bc6568",
          "transactionHash": "0x862e77abfdae07b5bfca5785f76efe2198093975ca52452ec9bb93953236bea2",
          "transactionIndex": "0x51",
          "logIndex": "0xb3",
          "removed": false
        }
      ],
      "logsBloom": "0x00000000000000000000000000008000000000000000000000000000000000000000000000400000000000000000000000000000000000000000000000200000000000000000000000000000000000000000080000000000002000000000000000000000000000000000000000000000000000000000000000000000000000000000000000000020040000000000000000000000000000000000000000000000020020000002000000000000000000000000000000000000000000000000000000000000000000000000000000000000000000000000000000000000000000000010000000000000000000000000000000000000000000000000000020000000",
      "type": "0x2",
      "transactionHash": "0x862e77abfdae07b5bfca5785f76efe2198093975ca52452ec9bb93953236bea2",
      "transactionIndex": "0x51",
      "blockHash": "0x53822c3bd80ddd1c30c7d5dd42693d7e978c8391be67b8687ef772f9efd8b14e",
      "blockNumber": "0x9fe6c9",
      "gasUsed": "0xb580",
      "effectiveGasPrice": "0xf424a",
      "from": "0x37cff24eae0629fe7060eb7d260ab37492d22e1d",
      "to": "0x90429c2910b99fee9aa4b20ac4060259cbad0f46",
      "contractAddress": null
    },
    {
      "status": "0x1",
      "cumulativeGasUsed": "0xc16e78",
      "logs": [
        {
          "address": "0x43a77da8ed6c900e97e7a3c2dd874ffea9ba97ca",
          "topics": [
            "0x8c5be1e5ebec7d5bd14f71427d1e84f3dd0314c0f7b2291e5b200ac8c7c3b925",
            "0x00000000000000000000000037cff24eae0629fe7060eb7d260ab37492d22e1d",
            "0x000000000000000000000000804037e84bb420e4efa8126f7c8f034e759104c1"
          ],
          "data": "0xffffffffffffffffffffffffffffffffffffffffffffffffffffffffffffffff",
          "blockHash": "0x53822c3bd80ddd1c30c7d5dd42693d7e978c8391be67b8687ef772f9efd8b14e",
          "blockNumber": "0x9fe6c9",
          "blockTimestamp": "0x69bc6568",
          "transactionHash": "0x6f612744f144df76d2e35c894f0856ed3b97af8a7b967b8403bc37c7784e7d71",
          "transactionIndex": "0x52",
          "logIndex": "0xb4",
          "removed": false
        }
      ],
      "logsBloom": "0x00000000000000000000000000008000000000000000000000000000000000000000000000000000000000000000000004000000000000000080000000200000000000000000000000000000000040000000000000000000000000000000000004000000000000000000000000000000000000000000000000000000000000000800000000000020040000000000000000000000000000000000000000000000020000000000000000000000000000000000000000000000000000000000000000000000000000000000000000000000000000000000000000000000000000000010000000000000001000000000000000000000000000000000000000000000",
      "type": "0x2",
      "transactionHash": "0x6f612744f144df76d2e35c894f0856ed3b97af8a7b967b8403bc37c7784e7d71",
      "transactionIndex": "0x52",
      "blockHash": "0x53822c3bd80ddd1c30c7d5dd42693d7e978c8391be67b8687ef772f9efd8b14e",
      "blockNumber": "0x9fe6c9",
      "gasUsed": "0xb580",
      "effectiveGasPrice": "0xf424a",
      "from": "0x37cff24eae0629fe7060eb7d260ab37492d22e1d",
      "to": "0x43a77da8ed6c900e97e7a3c2dd874ffea9ba97ca",
      "contractAddress": null
    },
    {
      "status": "0x1",
      "cumulativeGasUsed": "0xc223f8",
      "logs": [
        {
          "address": "0x90429c2910b99fee9aa4b20ac4060259cbad0f46",
          "topics": [
            "0x8c5be1e5ebec7d5bd14f71427d1e84f3dd0314c0f7b2291e5b200ac8c7c3b925",
            "0x00000000000000000000000037cff24eae0629fe7060eb7d260ab37492d22e1d",
            "0x000000000000000000000000804037e84bb420e4efa8126f7c8f034e759104c1"
          ],
          "data": "0xffffffffffffffffffffffffffffffffffffffffffffffffffffffffffffffff",
          "blockHash": "0x53822c3bd80ddd1c30c7d5dd42693d7e978c8391be67b8687ef772f9efd8b14e",
          "blockNumber": "0x9fe6c9",
          "blockTimestamp": "0x69bc6568",
          "transactionHash": "0x633f1f59f4856b328191545b778fee3235258c4920b39bdd312b3fb8858444d0",
          "transactionIndex": "0x53",
          "logIndex": "0xb5",
          "removed": false
        }
      ],
      "logsBloom": "0x00000000000000000000000000008000000000000000000000000000000000000000000000000000000000000000000004000000000000000000000000200000000000000000000000000000000040000000000000000000000000000000000004000000000000000000000000000000000000000000000000000000000000000000000000000020040000000000000000000000000000000000000000000000020020000002000000000000000000000000000000000000000000000000000000000000000000000000000000000000000000000000000000000000000000000010000000000000000000000000000000000000000000000000000020000000",
      "type": "0x2",
      "transactionHash": "0x633f1f59f4856b328191545b778fee3235258c4920b39bdd312b3fb8858444d0",
      "transactionIndex": "0x53",
      "blockHash": "0x53822c3bd80ddd1c30c7d5dd42693d7e978c8391be67b8687ef772f9efd8b14e",
      "blockNumber": "0x9fe6c9",
      "gasUsed": "0xb580",
      "effectiveGasPrice": "0xf424a",
      "from": "0x37cff24eae0629fe7060eb7d260ab37492d22e1d",
      "to": "0x90429c2910b99fee9aa4b20ac4060259cbad0f46",
      "contractAddress": null
    },
    {
      "status": "0x1",
      "cumulativeGasUsed": "0xc58437",
      "logs": [
        {
          "address": "0x8f609e1427a9601224a41dc819e527fdc59c48c0",
          "topics": [
            "0x65bd878891ea37abce70f965ba375cfda3a5bceabfacdf0d2c8f2aee66d598e6",
            "0x615f6f558d4f1be1973a5ef70c2940688d50c0b383293df59422f5a0f06be631",
            "0x000000000000000000000000c2826ed44bfe895211b2d72d86a8bb9337d9a954"
          ],
          "data": "0x",
          "blockHash": "0x53822c3bd80ddd1c30c7d5dd42693d7e978c8391be67b8687ef772f9efd8b14e",
          "blockNumber": "0x9fe6c9",
          "blockTimestamp": "0x69bc6568",
          "transactionHash": "0xc80f7e0d1c28b58908366e504772dabb17aae302491ec6933ae887488cb22c43",
          "transactionIndex": "0x54",
          "logIndex": "0xb6",
          "removed": false
        },
        {
          "address": "0xe03a1074c86cfedd5c142c4f04f1a1536e203543",
          "topics": [
            "0xf208f4912782fd25c7f114ca3723a2d5dd6f3bcc3ac8db5af63baa85f711d5ec",
            "0x615f6f558d4f1be1973a5ef70c2940688d50c0b383293df59422f5a0f06be631",
            "0x000000000000000000000000c2826ed44bfe895211b2d72d86a8bb9337d9a954"
          ],
          "data": "0xfffffffffffffffffffffffffffffffffffffffffffffffffffffffffffffda80000000000000000000000000000000000000000000000000000000000000258000000000000000000000000000000000000000000000000000000174876e8000000000000000000000000000000000000000000000000000000000000000000",
          "blockHash": "0x53822c3bd80ddd1c30c7d5dd42693d7e978c8391be67b8687ef772f9efd8b14e",
          "blockNumber": "0x9fe6c9",
          "blockTimestamp": "0x69bc6568",
          "transactionHash": "0xc80f7e0d1c28b58908366e504772dabb17aae302491ec6933ae887488cb22c43",
          "transactionIndex": "0x54",
          "logIndex": "0xb7",
          "removed": false
        },
        {
          "address": "0x43a77da8ed6c900e97e7a3c2dd874ffea9ba97ca",
          "topics": [
            "0xddf252ad1be2c89b69c2b068fc378daa952ba7f163c4a11628f55a4df523b3ef",
            "0x00000000000000000000000037cff24eae0629fe7060eb7d260ab37492d22e1d",
            "0x000000000000000000000000e03a1074c86cfedd5c142c4f04f1a1536e203543"
          ],
          "data": "0x00000000000000000000000000000000000000000000000000000000b0265031",
          "blockHash": "0x53822c3bd80ddd1c30c7d5dd42693d7e978c8391be67b8687ef772f9efd8b14e",
          "blockNumber": "0x9fe6c9",
          "blockTimestamp": "0x69bc6568",
          "transactionHash": "0xc80f7e0d1c28b58908366e504772dabb17aae302491ec6933ae887488cb22c43",
          "transactionIndex": "0x54",
          "logIndex": "0xb8",
          "removed": false
        },
        {
          "address": "0x90429c2910b99fee9aa4b20ac4060259cbad0f46",
          "topics": [
            "0xddf252ad1be2c89b69c2b068fc378daa952ba7f163c4a11628f55a4df523b3ef",
            "0x00000000000000000000000037cff24eae0629fe7060eb7d260ab37492d22e1d",
            "0x000000000000000000000000e03a1074c86cfedd5c142c4f04f1a1536e203543"
          ],
          "data": "0x00000000000000000000000000000000000000000000000000000000b0265190",
          "blockHash": "0x53822c3bd80ddd1c30c7d5dd42693d7e978c8391be67b8687ef772f9efd8b14e",
          "blockNumber": "0x9fe6c9",
          "blockTimestamp": "0x69bc6568",
          "transactionHash": "0xc80f7e0d1c28b58908366e504772dabb17aae302491ec6933ae887488cb22c43",
          "transactionIndex": "0x54",
          "logIndex": "0xb9",
          "removed": false
        }
      ],
      "logsBloom": "0x10004000400000000000000000008000020000000000000000000000000000040000000000400008100000000000000000000100000002000080000000000000000000000000000000000008000000000000080000000000002000000000000000000000000000000000000080000000000000000000100000000010000000000800000001000020040010000000000000000000000000000000000000000000000024000002000000000000000000000000000000000000000000000000000000000002000000000000000000004000000000000000000000001000000000001000000000000000001000000000000004000000000000000000000020000000",
      "type": "0x2",
      "transactionHash": "0xc80f7e0d1c28b58908366e504772dabb17aae302491ec6933ae887488cb22c43",
      "transactionIndex": "0x54",
      "blockHash": "0x53822c3bd80ddd1c30c7d5dd42693d7e978c8391be67b8687ef772f9efd8b14e",
      "blockNumber": "0x9fe6c9",
      "gasUsed": "0x3603f",
      "effectiveGasPrice": "0xf424a",
      "from": "0x37cff24eae0629fe7060eb7d260ab37492d22e1d",
      "to": "0xc2826ed44bfe895211b2d72d86a8bb9337d9a954",
      "contractAddress": null
    },
    {
      "status": "0x1",
      "cumulativeGasUsed": "0xc81343",
      "logs": [
        {
          "address": "0x8f609e1427a9601224a41dc819e527fdc59c48c0",
          "topics": [
            "0x61fc55e63aa7526b0b97b4f75041cb4bf9987fa0b2cc9e4fddb8022cac1d5a7a",
            "0x615f6f558d4f1be1973a5ef70c2940688d50c0b383293df59422f5a0f06be631",
            "0x000000000000000000000000e03a1074c86cfedd5c142c4f04f1a1536e203543"
          ],
          "data": "0x00000000000000000000000000000000000000000000000000000000000000000000000000000000000000000000000000000000000000000000000000000000",
          "blockHash": "0x53822c3bd80ddd1c30c7d5dd42693d7e978c8391be67b8687ef772f9efd8b14e",
          "blockNumber": "0x9fe6c9",
          "blockTimestamp": "0x69bc6568",
          "transactionHash": "0x6d36b7001f1d99257c1e80e49ff2e67cb9bb92d404268e4c3ddcf098b709e5d6",
          "transactionIndex": "0x55",
          "logIndex": "0xba",
          "removed": false
        },
        {
          "address": "0xe03a1074c86cfedd5c142c4f04f1a1536e203543",
          "topics": [
            "0x40e9cecb9f5f1f1c5b9c97dec2917b7ee92e57ba5563708daca94dd84ad7112f",
            "0x615f6f558d4f1be1973a5ef70c2940688d50c0b383293df59422f5a0f06be631",
            "0x000000000000000000000000804037e84bb420e4efa8126f7c8f034e759104c1"
          ],
          "data": "0x0000000000000000000000000000000000000000000000000000000000000063ffffffffffffffffffffffffffffffffffffffffffffffffffffffffffffff9c00000000000000000000000000000000000000010000000827ffae3e4d517641000000000000000000000000000000000000000000000000000000a2fb40580000000000000000000000000000000000000000000000000000000000000000000000000000000000000000000000000000000000000000000000000000000000",
          "blockHash": "0x53822c3bd80ddd1c30c7d5dd42693d7e978c8391be67b8687ef772f9efd8b14e",
          "blockNumber": "0x9fe6c9",
          "blockTimestamp": "0x69bc6568",
          "transactionHash": "0x6d36b7001f1d99257c1e80e49ff2e67cb9bb92d404268e4c3ddcf098b709e5d6",
          "transactionIndex": "0x55",
          "logIndex": "0xbb",
          "removed": false
        },
        {
          "address": "0x90429c2910b99fee9aa4b20ac4060259cbad0f46",
          "topics": [
            "0xddf252ad1be2c89b69c2b068fc378daa952ba7f163c4a11628f55a4df523b3ef",
            "0x00000000000000000000000037cff24eae0629fe7060eb7d260ab37492d22e1d",
            "0x000000000000000000000000e03a1074c86cfedd5c142c4f04f1a1536e203543"
          ],
          "data": "0x0000000000000000000000000000000000000000000000000000000000000064",
          "blockHash": "0x53822c3bd80ddd1c30c7d5dd42693d7e978c8391be67b8687ef772f9efd8b14e",
          "blockNumber": "0x9fe6c9",
          "blockTimestamp": "0x69bc6568",
          "transactionHash": "0x6d36b7001f1d99257c1e80e49ff2e67cb9bb92d404268e4c3ddcf098b709e5d6",
          "transactionIndex": "0x55",
          "logIndex": "0xbc",
          "removed": false
        },
        {
          "address": "0x43a77da8ed6c900e97e7a3c2dd874ffea9ba97ca",
          "topics": [
            "0xddf252ad1be2c89b69c2b068fc378daa952ba7f163c4a11628f55a4df523b3ef",
            "0x000000000000000000000000e03a1074c86cfedd5c142c4f04f1a1536e203543",
            "0x00000000000000000000000037cff24eae0629fe7060eb7d260ab37492d22e1d"
          ],
          "data": "0x0000000000000000000000000000000000000000000000000000000000000063",
          "blockHash": "0x53822c3bd80ddd1c30c7d5dd42693d7e978c8391be67b8687ef772f9efd8b14e",
          "blockNumber": "0x9fe6c9",
          "blockTimestamp": "0x69bc6568",
          "transactionHash": "0x6d36b7001f1d99257c1e80e49ff2e67cb9bb92d404268e4c3ddcf098b709e5d6",
          "transactionIndex": "0x55",
          "logIndex": "0xbd",
          "removed": false
        }
      ],
      "logsBloom": "0x0000400040000000000000000000800000000000000000000000000000000006000000000000000810000000000000000400010004000200008000000000000000000000000000000000000c000040100000000000000020000000000000000004000000000000000000000080000000000000000000100000000010000000000800000000000020040010000000000000000000000000000000000000000000000020000002000000000000000000000000000000000000000000000000000000000002000000000000000000000000000000000000000000001000000000001000000000000000005000000000000000000000000000000000000020000000",
      "type": "0x2",
      "transactionHash": "0x6d36b7001f1d99257c1e80e49ff2e67cb9bb92d404268e4c3ddcf098b709e5d6",
      "transactionIndex": "0x55",
      "blockHash": "0x53822c3bd80ddd1c30c7d5dd42693d7e978c8391be67b8687ef772f9efd8b14e",
      "blockNumber": "0x9fe6c9",
      "gasUsed": "0x28f0c",
      "effectiveGasPrice": "0xf424a",
      "from": "0x37cff24eae0629fe7060eb7d260ab37492d22e1d",
      "to": "0x804037e84bb420e4efa8126f7c8f034e759104c1",
      "contractAddress": null
    },
    {
      "status": "0x1",
      "cumulativeGasUsed": "0xca9f50",
      "logs": [
        {
          "address": "0x8f609e1427a9601224a41dc819e527fdc59c48c0",
          "topics": [
            "0x61fc55e63aa7526b0b97b4f75041cb4bf9987fa0b2cc9e4fddb8022cac1d5a7a",
            "0x615f6f558d4f1be1973a5ef70c2940688d50c0b383293df59422f5a0f06be631",
            "0x000000000000000000000000e03a1074c86cfedd5c142c4f04f1a1536e203543"
          ],
          "data": "0x00000000000000000000000000000000000000000000000000000000000000000000000000000000000000000000000000000000000000000000000000000000",
          "blockHash": "0x53822c3bd80ddd1c30c7d5dd42693d7e978c8391be67b8687ef772f9efd8b14e",
          "blockNumber": "0x9fe6c9",
          "blockTimestamp": "0x69bc6568",
          "transactionHash": "0x648c64986fbbc21dd8681a903f456d5cac04cd59d8bcdd961522c4e6d04d26f0",
          "transactionIndex": "0x56",
          "logIndex": "0xbe",
          "removed": false
        },
        {
          "address": "0xe03a1074c86cfedd5c142c4f04f1a1536e203543",
          "topics": [
            "0x40e9cecb9f5f1f1c5b9c97dec2917b7ee92e57ba5563708daca94dd84ad7112f",
            "0x615f6f558d4f1be1973a5ef70c2940688d50c0b383293df59422f5a0f06be631",
            "0x000000000000000000000000804037e84bb420e4efa8126f7c8f034e759104c1"
          ],
          "data": "0xffffffffffffffffffffffffffffffffffffffffffffffffffffffffffffffce0000000000000000000000000000000000000000000000000000000000000032000000000000000000000000000000000000000100000007d9765338b2bd3cae000000000000000000000000000000000000000000000000000000a2fb40580000000000000000000000000000000000000000000000000000000000000000000000000000000000000000000000000000000000000000000000000000000000",
          "blockHash": "0x53822c3bd80ddd1c30c7d5dd42693d7e978c8391be67b8687ef772f9efd8b14e",
          "blockNumber": "0x9fe6c9",
          "blockTimestamp": "0x69bc6568",
          "transactionHash": "0x648c64986fbbc21dd8681a903f456d5cac04cd59d8bcdd961522c4e6d04d26f0",
          "transactionIndex": "0x56",
          "logIndex": "0xbf",
          "removed": false
        },
        {
          "address": "0x43a77da8ed6c900e97e7a3c2dd874ffea9ba97ca",
          "topics": [
            "0xddf252ad1be2c89b69c2b068fc378daa952ba7f163c4a11628f55a4df523b3ef",
            "0x00000000000000000000000037cff24eae0629fe7060eb7d260ab37492d22e1d",
            "0x000000000000000000000000e03a1074c86cfedd5c142c4f04f1a1536e203543"
          ],
          "data": "0x0000000000000000000000000000000000000000000000000000000000000032",
          "blockHash": "0x53822c3bd80ddd1c30c7d5dd42693d7e978c8391be67b8687ef772f9efd8b14e",
          "blockNumber": "0x9fe6c9",
          "blockTimestamp": "0x69bc6568",
          "transactionHash": "0x648c64986fbbc21dd8681a903f456d5cac04cd59d8bcdd961522c4e6d04d26f0",
          "transactionIndex": "0x56",
          "logIndex": "0xc0",
          "removed": false
        },
        {
          "address": "0x90429c2910b99fee9aa4b20ac4060259cbad0f46",
          "topics": [
            "0xddf252ad1be2c89b69c2b068fc378daa952ba7f163c4a11628f55a4df523b3ef",
            "0x000000000000000000000000e03a1074c86cfedd5c142c4f04f1a1536e203543",
            "0x00000000000000000000000037cff24eae0629fe7060eb7d260ab37492d22e1d"
          ],
          "data": "0x0000000000000000000000000000000000000000000000000000000000000032",
          "blockHash": "0x53822c3bd80ddd1c30c7d5dd42693d7e978c8391be67b8687ef772f9efd8b14e",
          "blockNumber": "0x9fe6c9",
          "blockTimestamp": "0x69bc6568",
          "transactionHash": "0x648c64986fbbc21dd8681a903f456d5cac04cd59d8bcdd961522c4e6d04d26f0",
          "transactionIndex": "0x56",
          "logIndex": "0xc1",
          "removed": false
        }
      ],
      "logsBloom": "0x0000400040000000000000000000800000000000000000000000000000000006000000000000000810000000000000000400010004000200008000000000000000000000000000000000000c000040100000000000000020000000000000000004000000000000000000000080000000000000000000100000000010000000000800000000000020040010000000000000000000000000000000000000000000000020000002000000000000000000000000000000000000000000000000000000000002000000000000000000000000000000000000000000001000000000001000000000000000005000000000000000000000000000000000000020000000",
      "type": "0x2",
      "transactionHash": "0x648c64986fbbc21dd8681a903f456d5cac04cd59d8bcdd961522c4e6d04d26f0",
      "transactionIndex": "0x56",
      "blockHash": "0x53822c3bd80ddd1c30c7d5dd42693d7e978c8391be67b8687ef772f9efd8b14e",
      "blockNumber": "0x9fe6c9",
      "gasUsed": "0x28c0d",
      "effectiveGasPrice": "0xf424a",
      "from": "0x37cff24eae0629fe7060eb7d260ab37492d22e1d",
      "to": "0x804037e84bb420e4efa8126f7c8f034e759104c1",
      "contractAddress": null
    },
    {
      "status": "0x1",
      "cumulativeGasUsed": "0xcb1510",
      "logs": [
        {
          "address": "0x8f609e1427a9601224a41dc819e527fdc59c48c0",
          "topics": [
            "0x945c1c4e99aa89f648fbfe3df471b916f719e16d960fcec0737d4d56bd696838"
          ],
          "data": "0x0000000000000000000000000000000000000000000000000de0ae0d6f3804000000000000000000000000000000000000000000000000000d99a8cec7e20000",
          "blockHash": "0x53822c3bd80ddd1c30c7d5dd42693d7e978c8391be67b8687ef772f9efd8b14e",
          "blockNumber": "0x9fe6c9",
          "blockTimestamp": "0x69bc6568",
          "transactionHash": "0xadab67e91b00025026144f0c735eab00f437664b1800d0f33991ea3a11e154bb",
          "transactionIndex": "0x57",
          "logIndex": "0xc2",
          "removed": false
        }
      ],
      "logsBloom": "0x00004000400000000000000000000000000000000000000000000000000000000000000000000008000000000000000000000000000000000000000000000000000000000000000000000000000000000000000000000000000000000000000000000000000000000000000000000000000000000000000000000000000000000000000000000000000000000000000040000000000000000000000000000000000000000000000000000000000000000000000002000000000000000000000000000000000000000000000000000000000000000000000000004000000000000000000000000000000000000000000000000000000000000000000000000000",
      "type": "0x2",
      "transactionHash": "0xadab67e91b00025026144f0c735eab00f437664b1800d0f33991ea3a11e154bb",
      "transactionIndex": "0x57",
      "blockHash": "0x53822c3bd80ddd1c30c7d5dd42693d7e978c8391be67b8687ef772f9efd8b14e",
      "blockNumber": "0x9fe6c9",
      "gasUsed": "0x75c0",
      "effectiveGasPrice": "0xf424a",
      "from": "0x37cff24eae0629fe7060eb7d260ab37492d22e1d",
      "to": "0x8f609e1427a9601224a41dc819e527fdc59c48c0",
      "contractAddress": null
    },
    {
      "status": "0x1",
      "cumulativeGasUsed": "0xcdcc90",
      "logs": [
        {
          "address": "0x8f609e1427a9601224a41dc819e527fdc59c48c0",
          "topics": [
            "0x61fc55e63aa7526b0b97b4f75041cb4bf9987fa0b2cc9e4fddb8022cac1d5a7a",
            "0x615f6f558d4f1be1973a5ef70c2940688d50c0b383293df59422f5a0f06be631",
            "0x000000000000000000000000e03a1074c86cfedd5c142c4f04f1a1536e203543"
          ],
          "data": "0x000000000000000000000000000000000000000000000000000000000000271000000000000000000000000000000000000000000000000000000000000000c8",
          "blockHash": "0x53822c3bd80ddd1c30c7d5dd42693d7e978c8391be67b8687ef772f9efd8b14e",
          "blockNumber": "0x9fe6c9",
          "blockTimestamp": "0x69bc6568",
          "transactionHash": "0xf10d6658cd376e805b105722d775c2ca22e342c7640e768f4f9ba97c548f4cb9",
          "transactionIndex": "0x58",
          "logIndex": "0xc3",
          "removed": false
        },
        {
          "address": "0xe03a1074c86cfedd5c142c4f04f1a1536e203543",
          "topics": [
            "0x40e9cecb9f5f1f1c5b9c97dec2917b7ee92e57ba5563708daca94dd84ad7112f",
            "0x615f6f558d4f1be1973a5ef70c2940688d50c0b383293df59422f5a0f06be631",
            "0x000000000000000000000000804037e84bb420e4efa8126f7c8f034e759104c1"
          ],
          "data": "0x0000000000000000000000000000000000000000000000000000000000000062ffffffffffffffffffffffffffffffffffffffffffffffffffffffffffffff9c00000000000000000000000000000000000000010000000874f6edce8d2913d3000000000000000000000000000000000000000000000000000000a2fb40580000000000000000000000000000000000000000000000000000000000000000000000000000000000000000000000000000000000000000000000000000002710",
          "blockHash": "0x53822c3bd80ddd1c30c7d5dd42693d7e978c8391be67b8687ef772f9efd8b14e",
          "blockNumber": "0x9fe6c9",
          "blockTimestamp": "0x69bc6568",
          "transactionHash": "0xf10d6658cd376e805b105722d775c2ca22e342c7640e768f4f9ba97c548f4cb9",
          "transactionIndex": "0x58",
          "logIndex": "0xc4",
          "removed": false
        },
        {
          "address": "0x8f609e1427a9601224a41dc819e527fdc59c48c0",
          "topics": [
            "0x6acac9bd2063073c2d2517e184707d3dd1992abcca939ac5200ccd785f9d9cff",
            "0x615f6f558d4f1be1973a5ef70c2940688d50c0b383293df59422f5a0f06be631"
          ],
          "data": "0x00000000000000000000000000000000000000000000000000000000000000c80000000000000000000000000000000000000000000000000d99a8cec7e20000",
          "blockHash": "0x53822c3bd80ddd1c30c7d5dd42693d7e978c8391be67b8687ef772f9efd8b14e",
          "blockNumber": "0x9fe6c9",
          "blockTimestamp": "0x69bc6568",
          "transactionHash": "0xf10d6658cd376e805b105722d775c2ca22e342c7640e768f4f9ba97c548f4cb9",
          "transactionIndex": "0x58",
          "logIndex": "0xc5",
          "removed": false
        },
        {
          "address": "0x90429c2910b99fee9aa4b20ac4060259cbad0f46",
          "topics": [
            "0xddf252ad1be2c89b69c2b068fc378daa952ba7f163c4a11628f55a4df523b3ef",
            "0x00000000000000000000000037cff24eae0629fe7060eb7d260ab37492d22e1d",
            "0x000000000000000000000000e03a1074c86cfedd5c142c4f04f1a1536e203543"
          ],
          "data": "0x0000000000000000000000000000000000000000000000000000000000000064",
          "blockHash": "0x53822c3bd80ddd1c30c7d5dd42693d7e978c8391be67b8687ef772f9efd8b14e",
          "blockNumber": "0x9fe6c9",
          "blockTimestamp": "0x69bc6568",
          "transactionHash": "0xf10d6658cd376e805b105722d775c2ca22e342c7640e768f4f9ba97c548f4cb9",
          "transactionIndex": "0x58",
          "logIndex": "0xc6",
          "removed": false
        },
        {
          "address": "0x43a77da8ed6c900e97e7a3c2dd874ffea9ba97ca",
          "topics": [
            "0xddf252ad1be2c89b69c2b068fc378daa952ba7f163c4a11628f55a4df523b3ef",
            "0x000000000000000000000000e03a1074c86cfedd5c142c4f04f1a1536e203543",
            "0x00000000000000000000000037cff24eae0629fe7060eb7d260ab37492d22e1d"
          ],
          "data": "0x0000000000000000000000000000000000000000000000000000000000000062",
          "blockHash": "0x53822c3bd80ddd1c30c7d5dd42693d7e978c8391be67b8687ef772f9efd8b14e",
          "blockNumber": "0x9fe6c9",
          "blockTimestamp": "0x69bc6568",
          "transactionHash": "0xf10d6658cd376e805b105722d775c2ca22e342c7640e768f4f9ba97c548f4cb9",
          "transactionIndex": "0x58",
          "logIndex": "0xc7",
          "removed": false
        }
      ],
      "logsBloom": "0x0000400040000020000000000000800000000000000000000000000000000006000000000000000810000000000000000400010004000200008000000000000000000000000000000000000c000040100000000000000020000000000000000004000000000000000000000080000000000000000000100000000010000000000800000000000020040010000000000000000000000000000000000000000000000020000002000000000000000000000000000000000000000000000000000000000002000000000000000000000000010000000000000000001000000010001000000000000000005000000000000000000000000000000000000020000000",
      "type": "0x2",
      "transactionHash": "0xf10d6658cd376e805b105722d775c2ca22e342c7640e768f4f9ba97c548f4cb9",
      "transactionIndex": "0x58",
      "blockHash": "0x53822c3bd80ddd1c30c7d5dd42693d7e978c8391be67b8687ef772f9efd8b14e",
      "blockNumber": "0x9fe6c9",
      "gasUsed": "0x2b780",
      "effectiveGasPrice": "0xf424a",
      "from": "0x37cff24eae0629fe7060eb7d260ab37492d22e1d",
      "to": "0x804037e84bb420e4efa8126f7c8f034e759104c1",
      "contractAddress": null
    },
    {
      "status": "0x1",
      "cumulativeGasUsed": "0xce4250",
      "logs": [
        {
          "address": "0x8f609e1427a9601224a41dc819e527fdc59c48c0",
          "topics": [
            "0x945c1c4e99aa89f648fbfe3df471b916f719e16d960fcec0737d4d56bd696838"
          ],
          "data": "0x0000000000000000000000000000000000000000000000000d99a8cec7e200000000000000000000000000000000000000000000000000000dbd2fc137a30000",
          "blockHash": "0x53822c3bd80ddd1c30c7d5dd42693d7e978c8391be67b8687ef772f9efd8b14e",
          "blockNumber": "0x9fe6c9",
          "blockTimestamp": "0x69bc6568",
          "transactionHash": "0x44e8b485633838c9a6ca0c2d0e65e27bd11e72ce5bbd122a2238c3f9641d5a99",
          "transactionIndex": "0x59",
          "logIndex": "0xc8",
          "removed": false
        }
      ],
      "logsBloom": "0x00004000400000000000000000000000000000000000000000000000000000000000000000000008000000000000000000000000000000000000000000000000000000000000000000000000000000000000000000000000000000000000000000000000000000000000000000000000000000000000000000000000000000000000000000000000000000000000000040000000000000000000000000000000000000000000000000000000000000000000000002000000000000000000000000000000000000000000000000000000000000000000000000004000000000000000000000000000000000000000000000000000000000000000000000000000",
      "type": "0x2",
      "transactionHash": "0x44e8b485633838c9a6ca0c2d0e65e27bd11e72ce5bbd122a2238c3f9641d5a99",
      "transactionIndex": "0x59",
      "blockHash": "0x53822c3bd80ddd1c30c7d5dd42693d7e978c8391be67b8687ef772f9efd8b14e",
      "blockNumber": "0x9fe6c9",
      "gasUsed": "0x75c0",
      "effectiveGasPrice": "0xf424a",
      "from": "0x37cff24eae0629fe7060eb7d260ab37492d22e1d",
      "to": "0x8f609e1427a9601224a41dc819e527fdc59c48c0",
      "contractAddress": null
    },
    {
      "status": "0x1",
      "cumulativeGasUsed": "0xd0f6d1",
      "logs": [
        {
          "address": "0x8f609e1427a9601224a41dc819e527fdc59c48c0",
          "topics": [
            "0x61fc55e63aa7526b0b97b4f75041cb4bf9987fa0b2cc9e4fddb8022cac1d5a7a",
            "0x615f6f558d4f1be1973a5ef70c2940688d50c0b383293df59422f5a0f06be631",
            "0x000000000000000000000000e03a1074c86cfedd5c142c4f04f1a1536e203543"
          ],
          "data": "0x00000000000000000000000000000000000000000000000000000000000027100000000000000000000000000000000000000000000000000000000000000064",
          "blockHash": "0x53822c3bd80ddd1c30c7d5dd42693d7e978c8391be67b8687ef772f9efd8b14e",
          "blockNumber": "0x9fe6c9",
          "blockTimestamp": "0x69bc6568",
          "transactionHash": "0x8b6a3f1848d11abb3b1b0b27c19c8d288d6ce05066c034c129aab1adfbf3cad3",
          "transactionIndex": "0x5a",
          "logIndex": "0xc9",
          "removed": false
        },
        {
          "address": "0xe03a1074c86cfedd5c142c4f04f1a1536e203543",
          "topics": [
            "0x40e9cecb9f5f1f1c5b9c97dec2917b7ee92e57ba5563708daca94dd84ad7112f",
            "0x615f6f558d4f1be1973a5ef70c2940688d50c0b383293df59422f5a0f06be631",
            "0x000000000000000000000000804037e84bb420e4efa8126f7c8f034e759104c1"
          ],
          "data": "0xffffffffffffffffffffffffffffffffffffffffffffffffffffffffffffff3800000000000000000000000000000000000000000000000000000000000000c60000000000000000000000000000000000000001000000073df5b88fc5e0f17b000000000000000000000000000000000000000000000000000000a2fb40580000000000000000000000000000000000000000000000000000000000000000000000000000000000000000000000000000000000000000000000000000002710",
          "blockHash": "0x53822c3bd80ddd1c30c7d5dd42693d7e978c8391be67b8687ef772f9efd8b14e",
          "blockNumber": "0x9fe6c9",
          "blockTimestamp": "0x69bc6568",
          "transactionHash": "0x8b6a3f1848d11abb3b1b0b27c19c8d288d6ce05066c034c129aab1adfbf3cad3",
          "transactionIndex": "0x5a",
          "logIndex": "0xca",
          "removed": false
        },
        {
          "address": "0x8f609e1427a9601224a41dc819e527fdc59c48c0",
          "topics": [
            "0x6acac9bd2063073c2d2517e184707d3dd1992abcca939ac5200ccd785f9d9cff",
            "0x615f6f558d4f1be1973a5ef70c2940688d50c0b383293df59422f5a0f06be631"
          ],
          "data": "0x00000000000000000000000000000000000000000000000000000000000000640000000000000000000000000000000000000000000000000dbd2fc137a30000",
          "blockHash": "0x53822c3bd80ddd1c30c7d5dd42693d7e978c8391be67b8687ef772f9efd8b14e",
          "blockNumber": "0x9fe6c9",
          "blockTimestamp": "0x69bc6568",
          "transactionHash": "0x8b6a3f1848d11abb3b1b0b27c19c8d288d6ce05066c034c129aab1adfbf3cad3",
          "transactionIndex": "0x5a",
          "logIndex": "0xcb",
          "removed": false
        },
        {
          "address": "0x43a77da8ed6c900e97e7a3c2dd874ffea9ba97ca",
          "topics": [
            "0xddf252ad1be2c89b69c2b068fc378daa952ba7f163c4a11628f55a4df523b3ef",
            "0x00000000000000000000000037cff24eae0629fe7060eb7d260ab37492d22e1d",
            "0x000000000000000000000000e03a1074c86cfedd5c142c4f04f1a1536e203543"
          ],
          "data": "0x00000000000000000000000000000000000000000000000000000000000000c8",
          "blockHash": "0x53822c3bd80ddd1c30c7d5dd42693d7e978c8391be67b8687ef772f9efd8b14e",
          "blockNumber": "0x9fe6c9",
          "blockTimestamp": "0x69bc6568",
          "transactionHash": "0x8b6a3f1848d11abb3b1b0b27c19c8d288d6ce05066c034c129aab1adfbf3cad3",
          "transactionIndex": "0x5a",
          "logIndex": "0xcc",
          "removed": false
        },
        {
          "address": "0x90429c2910b99fee9aa4b20ac4060259cbad0f46",
          "topics": [
            "0xddf252ad1be2c89b69c2b068fc378daa952ba7f163c4a11628f55a4df523b3ef",
            "0x000000000000000000000000e03a1074c86cfedd5c142c4f04f1a1536e203543",
            "0x00000000000000000000000037cff24eae0629fe7060eb7d260ab37492d22e1d"
          ],
          "data": "0x00000000000000000000000000000000000000000000000000000000000000c6",
          "blockHash": "0x53822c3bd80ddd1c30c7d5dd42693d7e978c8391be67b8687ef772f9efd8b14e",
          "blockNumber": "0x9fe6c9",
          "blockTimestamp": "0x69bc6568",
          "transactionHash": "0x8b6a3f1848d11abb3b1b0b27c19c8d288d6ce05066c034c129aab1adfbf3cad3",
          "transactionIndex": "0x5a",
          "logIndex": "0xcd",
          "removed": false
        }
      ],
      "logsBloom": "0x0000400040000020000000000000800000000000000000000000000000000006000000000000000810000000000000000400010004000200008000000000000000000000000000000000000c000040100000000000000020000000000000000004000000000000000000000080000000000000000000100000000010000000000800000000000020040010000000000000000000000000000000000000000000000020000002000000000000000000000000000000000000000000000000000000000002000000000000000000000000010000000000000000001000000010001000000000000000005000000000000000000000000000000000000020000000",
      "type": "0x2",
      "transactionHash": "0x8b6a3f1848d11abb3b1b0b27c19c8d288d6ce05066c034c129aab1adfbf3cad3",
      "transactionIndex": "0x5a",
      "blockHash": "0x53822c3bd80ddd1c30c7d5dd42693d7e978c8391be67b8687ef772f9efd8b14e",
      "blockNumber": "0x9fe6c9",
      "gasUsed": "0x2b481",
      "effectiveGasPrice": "0xf424a",
      "from": "0x37cff24eae0629fe7060eb7d260ab37492d22e1d",
      "to": "0x804037e84bb420e4efa8126f7c8f034e759104c1",
      "contractAddress": null
    },
    {
      "status": "0x1",
      "cumulativeGasUsed": "0xd16c91",
      "logs": [
        {
          "address": "0x8f609e1427a9601224a41dc819e527fdc59c48c0",
          "topics": [
            "0x945c1c4e99aa89f648fbfe3df471b916f719e16d960fcec0737d4d56bd696838"
          ],
          "data": "0x0000000000000000000000000000000000000000000000000dbd2fc137a300000000000000000000000000000000000000000000000000000de0b6b3a7640000",
          "blockHash": "0x53822c3bd80ddd1c30c7d5dd42693d7e978c8391be67b8687ef772f9efd8b14e",
          "blockNumber": "0x9fe6c9",
          "blockTimestamp": "0x69bc6568",
          "transactionHash": "0xd52fb2079ce16366221eebb30474e21072eb1f08e34ddc7430419a4f440cc470",
          "transactionIndex": "0x5b",
          "logIndex": "0xce",
          "removed": false
        }
      ],
      "logsBloom": "0x00004000400000000000000000000000000000000000000000000000000000000000000000000008000000000000000000000000000000000000000000000000000000000000000000000000000000000000000000000000000000000000000000000000000000000000000000000000000000000000000000000000000000000000000000000000000000000000000040000000000000000000000000000000000000000000000000000000000000000000000002000000000000000000000000000000000000000000000000000000000000000000000000004000000000000000000000000000000000000000000000000000000000000000000000000000",
      "type": "0x2",
      "transactionHash": "0xd52fb2079ce16366221eebb30474e21072eb1f08e34ddc7430419a4f440cc470",
      "transactionIndex": "0x5b",
      "blockHash": "0x53822c3bd80ddd1c30c7d5dd42693d7e978c8391be67b8687ef772f9efd8b14e",
      "blockNumber": "0x9fe6c9",
      "gasUsed": "0x75c0",
      "effectiveGasPrice": "0xf424a",
      "from": "0x37cff24eae0629fe7060eb7d260ab37492d22e1d",
      "to": "0x8f609e1427a9601224a41dc819e527fdc59c48c0",
      "contractAddress": null
    },
    {
      "status": "0x1",
      "cumulativeGasUsed": "0xd3fbb1",
      "logs": [
        {
          "address": "0x8f609e1427a9601224a41dc819e527fdc59c48c0",
          "topics": [
            "0x61fc55e63aa7526b0b97b4f75041cb4bf9987fa0b2cc9e4fddb8022cac1d5a7a",
            "0x615f6f558d4f1be1973a5ef70c2940688d50c0b383293df59422f5a0f06be631",
            "0x000000000000000000000000e03a1074c86cfedd5c142c4f04f1a1536e203543"
          ],
          "data": "0x00000000000000000000000000000000000000000000000000000000000000000000000000000000000000000000000000000000000000000000000000000000",
          "blockHash": "0x53822c3bd80ddd1c30c7d5dd42693d7e978c8391be67b8687ef772f9efd8b14e",
          "blockNumber": "0x9fe6c9",
          "blockTimestamp": "0x69bc6568",
          "transactionHash": "0xbedd684038281bafeede12015ae6d1fe2d6948bddfbaf0736064b4330d958427",
          "transactionIndex": "0x5c",
          "logIndex": "0xcf",
          "removed": false
        },
        {
          "address": "0xe03a1074c86cfedd5c142c4f04f1a1536e203543",
          "topics": [
            "0x40e9cecb9f5f1f1c5b9c97dec2917b7ee92e57ba5563708daca94dd84ad7112f",
            "0x615f6f558d4f1be1973a5ef70c2940688d50c0b383293df59422f5a0f06be631",
            "0x000000000000000000000000804037e84bb420e4efa8126f7c8f034e759104c1"
          ],
          "data": "0x0000000000000000000000000000000000000000000000000000000000000063ffffffffffffffffffffffffffffffffffffffffffffffffffffffffffffff9c000000000000000000000000000000000000000100000007db086e9128f88a27000000000000000000000000000000000000000000000000000000a2fb40580000000000000000000000000000000000000000000000000000000000000000000000000000000000000000000000000000000000000000000000000000000000",
          "blockHash": "0x53822c3bd80ddd1c30c7d5dd42693d7e978c8391be67b8687ef772f9efd8b14e",
          "blockNumber": "0x9fe6c9",
          "blockTimestamp": "0x69bc6568",
          "transactionHash": "0xbedd684038281bafeede12015ae6d1fe2d6948bddfbaf0736064b4330d958427",
          "transactionIndex": "0x5c",
          "logIndex": "0xd0",
          "removed": false
        },
        {
          "address": "0x90429c2910b99fee9aa4b20ac4060259cbad0f46",
          "topics": [
            "0xddf252ad1be2c89b69c2b068fc378daa952ba7f163c4a11628f55a4df523b3ef",
            "0x00000000000000000000000037cff24eae0629fe7060eb7d260ab37492d22e1d",
            "0x000000000000000000000000e03a1074c86cfedd5c142c4f04f1a1536e203543"
          ],
          "data": "0x0000000000000000000000000000000000000000000000000000000000000064",
          "blockHash": "0x53822c3bd80ddd1c30c7d5dd42693d7e978c8391be67b8687ef772f9efd8b14e",
          "blockNumber": "0x9fe6c9",
          "blockTimestamp": "0x69bc6568",
          "transactionHash": "0xbedd684038281bafeede12015ae6d1fe2d6948bddfbaf0736064b4330d958427",
          "transactionIndex": "0x5c",
          "logIndex": "0xd1",
          "removed": false
        },
        {
          "address": "0x43a77da8ed6c900e97e7a3c2dd874ffea9ba97ca",
          "topics": [
            "0xddf252ad1be2c89b69c2b068fc378daa952ba7f163c4a11628f55a4df523b3ef",
            "0x000000000000000000000000e03a1074c86cfedd5c142c4f04f1a1536e203543",
            "0x00000000000000000000000037cff24eae0629fe7060eb7d260ab37492d22e1d"
          ],
          "data": "0x0000000000000000000000000000000000000000000000000000000000000063",
          "blockHash": "0x53822c3bd80ddd1c30c7d5dd42693d7e978c8391be67b8687ef772f9efd8b14e",
          "blockNumber": "0x9fe6c9",
          "blockTimestamp": "0x69bc6568",
          "transactionHash": "0xbedd684038281bafeede12015ae6d1fe2d6948bddfbaf0736064b4330d958427",
          "transactionIndex": "0x5c",
          "logIndex": "0xd2",
          "removed": false
        }
      ],
      "logsBloom": "0x0000400040000000000000000000800000000000000000000000000000000006000000000000000810000000000000000400010004000200008000000000000000000000000000000000000c000040100000000000000020000000000000000004000000000000000000000080000000000000000000100000000010000000000800000000000020040010000000000000000000000000000000000000000000000020000002000000000000000000000000000000000000000000000000000000000002000000000000000000000000000000000000000000001000000000001000000000000000005000000000000000000000000000000000000020000000",
      "type": "0x2",
      "transactionHash": "0xbedd684038281bafeede12015ae6d1fe2d6948bddfbaf0736064b4330d958427",
      "transactionIndex": "0x5c",
      "blockHash": "0x53822c3bd80ddd1c30c7d5dd42693d7e978c8391be67b8687ef772f9efd8b14e",
      "blockNumber": "0x9fe6c9",
      "gasUsed": "0x28f20",
      "effectiveGasPrice": "0xf424a",
      "from": "0x37cff24eae0629fe7060eb7d260ab37492d22e1d",
      "to": "0x804037e84bb420e4efa8126f7c8f034e759104c1",
      "contractAddress": null
    }
  ],
  "libraries": [],
  "pending": [],
  "returns": {},
  "timestamp": 1773954410237,
  "chain": 11155111,
  "commit": "88b0f5d"
}